:100000000C94FF000C941C010C941C010C941C011A
:100010000C941C010C941C010C941C010C941C01EC
:100020000C941C010C941C010C941C010C940E03E8
:100030000C942F030C941C010C941C010C941C01B7
:100040000C941C010C941C010C941C010C941C01BC
:100050000C941C010C941C010C941C010C941C01AC
:100060000C941C010C941C010C941C010C941C019C
:100070000C941C010C941C010C941C010C941C018C
:100080000C941C010C941C010C941C010C941C017C
:100090000C941C010C941C010000088080808000DE
:1000A000000000000000000000000000010000EA65
:1000B000001200020000FC0022002100000E0109D5
:1000C000002200001E0170000300008E01040103E5
:1000D000090492014802030904DC012001C1320035
:1000E000000021260107000000001201100100009D
:1000F0000040C410C0820001010200010902220078
:100100000101008032090400000103000000092100
:10011000110100012270000705810340000A05015A
:100120000905A10115002501350045017501950E50
:1001300005091901290E8102950281010501250792
:10014000463B0175049501651409398142650095A6
:1001500001810126FF0046FF0009300931093209FB
:10016000357508950481020600FF0920092109223E
:100170000923092409250926092709280929092A03
:10018000092B950C81020A21269508B102C00403AF
:10019000090448034F00700065006E0043006800CA
:1001A0006F007200640020005800200052004D00D3
:1001B000490054002000450078006500720074007A
:1001C00069006F006E002000470061006D0065004F
:1001D000730020004C006100620000002003550005
:1001E0006E006F004A006F00790020004A006F0027
:1001F000790073007400690063006B000000112433
:100200001FBECFEFD2E0DEBFCDBF11E0A0E0B1E076
:10021000E8EDFAE002C005900D92A230B107D9F7DF
:1002200011E0A2E0B1E001C01D92A731B107E1F7F2
:100230000E945D040C946A050C940000CF93DF9338
:10024000CDB7DEB727970FB6F894DEBF0FBECDBF90
:100250004B8141704B8381E08C838D838E838F81B2
:1002600081608F8329813A8151E061E071E00E94D1
:10027000F50127960FB6F894DEBF0FBECDBFDF9114
:10028000CF9108959093CD008093CC0088E1809326
:10029000C90086E08093CA00089508C0EFE9FFE036
:1002A0003197F1F700C00000019739F02091C800A4
:1002B00027FFF4CF8091CE00089580E008959091BB
:1002C000C80095FFFCCF8093CE00089502C08091B6
:1002D000CE008091C80087FDFACF08959AB121E041
:1002E00030E002C0220F331F8A95E2F7922B9AB9B1
:1002F0008BB1209528232BB908959AB121E030E0E5
:1003000002C0220F331F8A95E2F7822F809589233E
:100310008AB98BB1822B8BB908958091E80080FF58
:10032000FCCF089580EA8093D80086E089BD80E004
:1003300090E00BC0EFE9FFE03197F1F700C000005B
:100340000196F3E0883E9F0781F009B400FEF2CFEA
:1003500080E88093D8001092E000109202018CE0B7
:100360008093E200789480E0089581E00895809180
:100370000201089584E091E068E970E043E150E013
:100380000E946105089580910201882351F18FB781
:10039000F89491E09093E9009091E4009E5C21E054
:1003A0003091E80035FF04C0E4E0F1E093E10EC0D5
:1003B0008FBF809102018823A1F08091E40089170A
:1003C00091F08FB7F8942093E900EACF2191209320
:1003D000F1009150D9F79AE39093E8008FBF80E045
:1003E00008958FEF08958FEF0895CF93DF93CDB7E2
:1003F000DEB727970FB6F894DEBF0FBECDBF922FA2
:100400002983232F3A834B835C836D837E838F8381
:10041000492F4170440F440F440F80910401867F9F
:10042000392F369536953170842B832B492F46957D
:1004300046954270897F392F330F3470842B832B7C
:10044000492F40718F7C392F331F3327331F32954B
:10045000330F307E842B832B990F90748F732795E5
:1004600022272795892B822B8093040183FF04C0C8
:100470009FEF90930F0102C010920F0180FF04C004
:100480009FEF9093120102C01092120181FF04C0ED
:100490009FEF9093110102C01092110182FF04C0DE
:1004A0009FEF9093100102C01092100184FF04C0CE
:1004B0009FEF9093130102C01092130186FF04C0B6
:1004C0009FEF9093150102C01092150185FF04C0A3
:1004D0009FEF9093140102C01092140187FF04C093
:1004E0008FEF8093160102C0109216019A81392F66
:1004F000369536953170809105018C7F292F269590
:1005000026952270832B822B298122952470837F4C
:10051000392F330F330F3870822B832B292F207103
:100520008F7E822B8093050188E08093060196FFE1
:100530000DC095FF02C087E003C097FF04C081E0B3
:10054000809306011CC01092060119C02B81892FCF
:10055000807220FF0AC0882311F085E009C097FF50
:1005600002C083E005C084E003C0882321F086E058
:100570008093060150C097FF4EC082E0F9CF8FEF05
:1005800080930B0197FF04C08FEF80930C0102C092
:1005900010920C018B8180FF04C08FEF80930D01BE
:1005A00002C010920D0195FF04C08FEF80930E01E1
:1005B00002C010920E019B8196952C81822F879507
:1005C00088278795892B8093070126959D81892F00
:1005D000879588278795822B80930801292F269558
:1005E0009E81892F879588278795822B8093090183
:1005F00096958F81879588278795892B80930A0107
:100600000E94C30127960FB6F894DEBF0FBECDBF80
:10061000DF91CF91089510920B01B4CF1F920F92EA
:100620000FB60F9211248F938091E1001092E10098
:1006300083FF0FC01092E90081E08093EB001092DD
:10064000EC0082E38093ED0088E08093F00010924C
:1006500002018F910F900FBE0F901F9018951F925F
:100660000F920FB60F9211241F932F933F934F9326
:100670005F936F937F938F939F93AF93BF93CF932A
:10068000DF93EF93FF931092E9008091E80083FFDE
:10069000FDC03091F1002091F100C091F100D0E057
:1006A0004091F100942F80E0C82BD92B6091F1008C
:1006B00070E04091F100942F80E0682B792BA0919D
:1006C000F1001091F10082EF8093E800263009F0EC
:1006D00051C047E02BEA30E0F901859194918C17E5
:1006E0009D0739F4F9013296859194918617970701
:1006F00029F0295F3F4F415079F7C8C0F90134967E
:1007000085919491AC012A5F3F4FF9012491B0E0AB
:10071000912F80E0A82BB92BAF3FB10519F010F055
:10072000AFEFB0E0A21708F42A2FAEEF8091E800F7
:1007300090E0BC016570707061157105B9F382FDC0
:10074000A8C0322F213408F030E4CA01632F06C05C
:10075000FC010196E491E093F10061506623C1F73A
:10076000430F511D231BA093E8002223F9F63034D8
:10077000E9F28FC0253049F48EEF8093E8000E94A3
:100780008D01C068C093E30084C0293069F533232C
:1007900009F03CC0C09302018EEF8093E80041E075
:1007A0008CED90E001C0C9014093E9009C012F5FEE
:1007B0003F4FFC0154915093EB00552361F0F90138
:1007C00024912093EC009C012D5F3F4F0296FC0189
:1007D00084918093ED004F5F453029F78EE180933F
:1007E000EA001092EA0055C0283039F4303871F42C
:1007F0000E948D01809102012DC0222339F40E94B4
:100800008D011092F1001092F1003CC0611571054C
:1008100009F03CC0313A09F5213079F40E948D018C
:1008200080E090E0FC01EE51FF4FE491E093F10095
:10083000019688309105B1F725C0223029F40E9435
:100840008D018091030106C0233001F50E948D01C6
:10085000809100018093F10015C03132B9F4293044
:1008600041F48091E80082FFFCCF8BEF8093E80099
:1008700009C02A3019F4D093030104C02B3031F49D
:10088000C09300018EEF8093E80003C081E2809363
:10089000EB00FF91EF91DF91CF91BF91AF919F91CD
:1008A0008F917F916F915F914F913F912F911F9108
:1008B0000F900FBE0F901F901895CF93DF93CDB779
:1008C000DEB727970FB6F894DEBF0FBECDBFA89551
:1008D00084B7877F84BF88E10FB6F8948093600067
:1008E000109260000FBE89E190E00E94420180E812
:1008F00080936100109261000E94920118C085E00F
:100900000E946E018FEF90E7A2E081509040A040DE
:10091000E1F700C0000085E00E947D018FEF90E7C5
:10092000A2E081509040A040E1F700C000000E948A
:10093000B701882321F38FEF99E6A8E18150904019
:10094000A040E1F700C00000AFE3BCE91197F1F768
:1009500000C0000085E00E946E010E94660180E0F8
:100960000E945F0189E190E00E944D01082F81E023
:100970000E945F0189E190E00E944D01182F82E002
:100980000E945F0189E190E00E944D01F82E83E012
:100990000E945F0189E190E00E944D01282F220F03
:1009A0009B819170922B9B83881F8827881F9C8135
:1009B0009E7F982B9C8384E00E945F0189E190E0F8
:1009C0000E944D01282F220F9C819170922B9C83B5
:1009D000881F8827881F9D819E7F982B9D8385E097
:1009E0000E945F0189E190E00E944D01282F220FB3
:1009F0009D819170922B9D83881F8827881F9E81DF
:100A00009E7F982B9E8386E00E945F0189E190E0A3
:100A10000E944D01282F220F9E819170922B9E8360
:100A2000881F8827881F9F819E7F982B9F8385E042
:100A30000E947D01902F917029812C7F802F8270E0
:100A4000292B282B902F9470237F802F8870292B9F
:100A5000282B902F90712F7C802F8072292B282B90
:100A6000802F80742F730078282B202B2983912FBF
:100A700091703A813C7F812F8270392B382B912FD6
:100A80009470337F812F8870392B382B912F907180
:100A90003F7C812F8072392B382B812F80743F73DC
:100AA0001078382B312B3A838F2D81704B814E7FFC
:100AB000482B4B835C816D817E818F810E94F50183
:100AC00043CFFB01DC0102C005900D924150504024
:080AD000D8F70895F894FFCF58
:020AD80001001B
:00000001FF
