:100000000C9438010C9455010C9455010C94550135
:100010000C9455010C9455010C9455010C94550108
:100020000C9455010C9455010C9455010C941D032E
:100030000C943E030C9455010C9455010C945501FD
:100040000C9455010C9455010C9455010C945501D8
:100050000C9455010C9455010C9455010C945501C8
:100060000C9455010C9455010C9455010C945501B8
:100070000C9455010C9455010C9455010C945501A8
:100080000C9455010C9455010C9455010C94550198
:100090000C9455010C94550100010000D70012008A
:1000A000020000E9002200210000FB0009002200FC
:1000B000000B01F400030000FF0104010309040325
:1000C0000248020309044D022001C1320000002150
:1000D000260107000000001201100100000040C4CA
:1000E00010C1820001010200010902220001010089
:1000F0008032090400000103000000092111010001
:100100000122F4000705810340000A05010905A149
:100110000185011500250135004501750195200572
:100120000919012920810205012507463B017504B3
:100130009501651409398142650095018101160018
:100140000026FF0336000046FF030930093109325B
:100150000933093409357510950681020600FF0937
:10016000200921092209230924092509260927092B
:10017000280929092A092B7508950C81020A2126CC
:100180009508B102C005010905A1018502150025E8
:1001900001350045017501952005091901292081C6
:1001A0000205012507463B017504950165140939CF
:1001B000814265009501810116000026FF0336008B
:1001C0000046FF0309300931093209330934093582
:1001D0007510950681020600FF09200921092209F0
:1001E00023092409250926092709280929092A0993
:1001F0002B7508950C81020A21269508B102C004CE
:1002000003090448034F00700065006E0043006856
:10021000006F007200640020005800200052004D62
:100220000049005400200045007800650072007409
:100230000069006F006E002000470061006D0065DE
:1002400000730020004C0061006200000020035594
:10025000006E006F004A006F00790020004A006FB6
:1002600000790073007400690063006B00000000F7
:1002700011241FBECFEFD2E0DEBFCDBF11E0A0E062
:10028000B1E0E0E3FBE002C005900D92A230B107BF
:10029000D9F711E0A2E0B1E001C01D92A232B1078E
:1002A000E1F70E946C040C9496050C9400000895EC
:1002B0009093CD008093CC0088E18093C90086E0C4
:1002C0008093CA00089508C0EFE9FFE03197F1F785
:1002D00000C00000019739F02091C80027FFF4CF3B
:1002E0008091CE00089580E008959091C80095FF18
:1002F000FCCF8093CE00089502C08091CE00809103
:10030000C80087FDFACF08959AB121E030E002C01D
:10031000220F331F8A95E2F7922B9AB98BB1209561
:1003200028232BB908959AB121E030E002C0220FB2
:10033000331F8A95E2F7822F809589238AB98BB182
:10034000822B8BB908951F93CF93DF93182F0E94B0
:10035000750189E190E00E946301C82FD0E0812FF0
:100360008F5F0E94750189E190E00E946301382F40
:1003700020E0C20FD31FCE01DF91CF911F910895CE
:100380008091E80080FFFCCF089580EA8093D80038
:1003900086E089BD80E090E00BC0EFE9FFE0319797
:1003A000F1F700C000000196F3E0883E9F0781F05E
:1003B00009B400FEF2CF80E88093D8001092E000EC
:1003C000109202018CE08093E200789480E008951E
:1003D00081E00895809102010895809102018823AF
:1003E00051F18FB7F89491E09093E9009091E40077
:1003F0009E5C21E03091E80035FF04C0E4E0F1E0CC
:100400009EE10EC08FBF809102018823A1F08091F0
:10041000E400891791F08FB7F8942093E900EACFB0
:1004200021912093F1009150D9F79AE39093E8003D
:100430008FBF80E008958FEF08958FEF08958F921A
:100440009F92AF92BF92CF92DF92EF92FF920F9363
:100450001F93CF93DF93CDB7DEB761970FB6F894B4
:10046000DEBF0FBECDBF89829A82AB82BC82BC2C1C
:10047000CD82DE82EF82F88609871A872B873C8738
:100480004D875E876F87788B898B6E817F814885EA
:100490005985AA85BB85EC85FD852E853F85888994
:1004A000998918A110930401C980DA80EB80FC803F
:1004B000C0920501D0920601E0920701F092080176
:1004C00018E0109309011B2D1170B1FE0DC011230E
:1004D00011F017E003C0B2FE04C011E0109309014F
:1004E00019C01092090116C0B3FE0AC0112311F001
:1004F00015E009C0B2FE02C013E005C014E003C05D
:10050000112321F016E01093090194C0B2FE92C0AD
:1005100012E0F9CF1FEF10931601B2FE04C01FEFD7
:100520001093170102C010921701B3FE04C01FEF11
:100530001093180102C010921801B0FE04C01FEF02
:100540001093190102C01092190177FD05C014E043
:100550006030710724F405C060E070E002C06FEF06
:1005600073E057FD05C014E04030510724F405C086
:1005700040E050E002C04FEF53E0B7FD05C014E08B
:10058000A030B10724F405C0A0E0B0E002C0AFEF96
:10059000B3E0F7FD05C014E0E030F10724F405C036
:1005A000E0E0F0E002C0EFEFF3E037FD05C014E05B
:1005B0002030310724F405C020E030E002C02FEFE6
:1005C00033E097FD05C014E08030910724F405C0A6
:1005D00080E090E002C08FEF93E070930B01609396
:1005E0000A0150930D0140930C01B0930F01A093A9
:1005F0000E01F0931101E093100130931301209349
:10060000120190931501809314010E94ED016196EF
:100610000FB6F894DEBF0FBECDBFDF91CF911F9113
:100620000F91FF90EF90DF90CF90BF90AF909F9091
:100630008F9008951092160170CF1F920F920FB6EF
:100640000F9211248F938091E1001092E10083FFBB
:100650000FC01092E90081E08093EB001092EC0053
:1006600082E38093ED0088E08093F0001092020115
:100670008F910F900FBE0F901F9018951F920F92A1
:100680000FB60F9211241F932F933F934F935F93B5
:100690006F937F938F939F93AF93BF93CF93DF938A
:1006A000EF93FF931092E9008091E80083FFFDC073
:1006B0003091F1002091F100C091F100D0E0409123
:1006C000F100942F80E0C82BD92B6091F10070E0ED
:1006D0004091F100942F80E0682B792BA091F100DC
:1006E0001091F10082EF8093E800263009F051C0AC
:1006F00047E028E930E0F901859194918C179D0736
:1007000039F4F9013296859194918617970729F06B
:10071000295F3F4F415079F7C8C0F9013496859160
:100720009491AC012A5F3F4FF9012491B0E0912FE1
:1007300080E0A82BB92BAF3FB10519F010F0AFEF57
:10074000B0E0A21708F42A2FAEEF8091E80090E005
:10075000BC016570707061157105B9F382FDA8C0A8
:10076000322F213408F030E4CA01632F06C0FC01A7
:100770000196E491E093F10061506623C1F7430FC5
:10078000511D231BA093E8002223F9F63034E9F22F
:100790008FC0253049F48EEF8093E8000E94C0019D
:1007A000C068C093E30084C0293069F5332309F0A1
:1007B0003CC0C09302018EEF8093E80041E089ECD9
:1007C00090E001C0C9014093E9009C012F5F3F4FB9
:1007D000FC0154915093EB00552361F0F9012491F1
:1007E0002093EC009C012D5F3F4F0296FC01849109
:1007F0008093ED004F5F453029F78EE18093EA004A
:100800001092EA0055C0283039F4303871F40E9453
:10081000C001809102012DC0222339F40E94C00141
:100820001092F1001092F1003CC06115710509F0C1
:100830003CC0313A09F5213079F40E94C00180E0D2
:1008400090E0FC01E153FF4FE491E093F100019649
:1008500088309105B1F725C0223029F40E94C001EB
:100860008091030106C0233001F50E94C0018091F0
:1008700000018093F10015C03132B9F4293041F400
:100880008091E80082FFFCCF8BEF8093E80009C0E5
:100890002A3019F4D093030104C02B3031F4C093F3
:1008A00000018EEF8093E80003C081E28093EB00AB
:1008B000FF91EF91DF91CF91BF91AF919F918F9178
:1008C0007F916F915F914F913F912F911F910F9069
:1008D0000FBE0F901F901895CF93DF93CDB7DEB763
:1008E000A3970FB6F894DEBF0FBECDBFA89584B70F
:1008F000877F84BF88E10FB6F894809360001092E0
:1009000060000FBE89E190E00E94580180E880936A
:100910006100109261000E94C50118C085E00E942C
:1009200084018FEF90E7A2E081509040A040E1F772
:1009300000C0000085E00E9493018FEF90E7A2E0E5
:1009400081509040A040E1F700C000000E94EA0101
:10095000882321F38FEF99E6A8E181509040A040D1
:10096000E1F700C000007724739482E0682EAFE3C3
:10097000BCE91197F1F700C0000085E00E948401F6
:100980000E947C018E010E5E1F4F20E0822F2BA360
:100990000E94750189E190E00E946301F801819352
:1009A0008F012BA12F5F243089F78E010F5F1F4F1E
:1009B000822F2BA30E94750189E190E00E946301C0
:1009C000D8018D938D012BA12F5F283089F788E006
:1009D0000E94750189E190E00E946301382F317017
:1009E0009E899C7F282F2270932B922B382F347056
:1009F000937F282F2870932B922B9E8B382F329524
:100A000031709D819C7F282F22952270932B922BF1
:100A1000282F22952470937F881F8827881F880F8E
:100A2000880F880F922B982B9D8389E090E00E947D
:100A3000A301988F8F8B8BE090E00E94A3019A8F87
:100A4000898F8DE090E00E94A3019C8F8B8F8FE0B7
:100A500090E00E94A3019E8F8D8F81E190E00E9423
:100A6000A30198A38F8F83E190E00E94A3019AA332
:100A700089A385E190E00E94A3019F838E8387E193
:100A800090E00E94A3019987888789E190E00E9405
:100A9000A3019B878A878BE190E00E94A3019D8739
:100AA0008C878DE190E00E94A3019F878E878FE164
:100AB00090E00E94A301998B888B85E00E949301AE
:100AC0000F92EDB7FEB771828A889B88AC88BD888B
:100AD000CE88DF88E88CF98C0A8D1B8D2C8D3D8D9E
:100AE0004E8D5F8D68A179A18AA10E941F028FE3BC
:100AF0009CE90197F1F700C00000ADB7BEB71196B1
:100B00006C9289809A80AB80BC80CD80DE80EF8043
:100B1000F88409851A852B853C854D855E856F8512
:100B2000788989890E941F020F9021CFF894FFCF06
:020B30000100C2
:00000001FF
