:100000000C943A010C9457010C9457010C9457012D
:100010000C9457010C9457010C9457010C94570100
:100020000C9457010C9457010C9457010C94DB0469
:100030000C94FC040C9457010C9457010C94570138
:100040000C9457010C9457010C9457010C945701D0
:100050000C9457010C9457010C9457010C945701C0
:100060000C9457010C9457010C9457010C945701B0
:100070000C9457010C9457010C9457010C945701A0
:100080000C9457010C9457010C9457010C94570190
:100090000C9457010C94570100010000EB00120072
:1000A000020000FD0022002100000F0109002200D3
:1000B000001F01E400030000030204010309040718
:1000C00002480203090451022001C132000000214C
:1000D00026010700000000010000088080808000E9
:1000E00000000000000000000000001201100100EC
:1000F000000040C410C08200010102000109022278
:100100000001010080320904000001030000000921
:10011000211101000122E4000705810340000A05C6
:10012000010905A10185011500250135004501756D
:1001300001950D05091901290D810295038101051C
:10014000012507463B017504950165140939814273
:1001500065009501810126FF0046FF000930093145
:10016000093209357508950481020600FF09200946
:100170002109220923092409250926092709280913
:1001800029092A092B950C81020A21269508B1021A
:10019000C005010905A101850215002501350045AD
:1001A000017501950D05091901290D81029503813C
:1001B0000105012507463B017504950165140939C0
:1001C000814265009501810126FF0046FF0009304C
:1001D0000931093209357508950481020600FF09C5
:1001E00020092109220923092409250926092709AB
:1001F000280929092A092B950C81020A212695082C
:10020000B102C00403090448034F00700065006E8A
:1002100000430068006F0072006400200058002056
:100220000052004D00490054002000450078006550
:10023000007200740069006F006E002000470061CA
:10024000006D006500730020004C0061006200003A
:1002500000200355006E006F004A006F00790020F7
:10026000004A006F00790073007400690063006B3E
:100270000000000011241FBECFEFD2E0DEBFCDBFD3
:1002800011E0A0E0B1E0EEE7FCE002C005900D92C5
:10029000A230B107D9F711E0A2E0B1E001C01D9290
:1002A000A831B107E1F70E94E1010C943D060C94DE
:1002B000000089E190E008C0EFE9FFE03197F1F735
:1002C00000C00000019739F02091C80027FFF4CF4B
:1002D0008091CE00089580E008950F93DF93CF932F
:1002E000CDB7DEB727970FB6F894DEBF0FBECDBFF0
:1002F0004B8141704B8381E08C838D838E838F8112
:1003000081608F8329813A8151E061E071E000E0F2
:100310000E94E00329813A814B815C816D817E815D
:100320008F8101E00E94E00327960FB6F894DEBFAC
:100330000FBECDBFCF91DF910F9108959093CD0067
:100340008093CC0088E18093C90086E08093CA0046
:10035000089508C0EFE9FFE03197F1F700C0000011
:10036000019739F02091C80027FFF4CF8091CE008B
:10037000089580E008959091C80095FFFCCF809388
:10038000CE0008959AB121E030E002C0220F331F61
:100390008A95E2F7922B9AB98BB1209528232BB935
:1003A00008959AB121E030E002C0220F331F8A95F0
:1003B000E2F7822F809589238AB98BB1822B8BB982
:1003C0000895FF920F931F93DF93CF93CDB7DEB7BE
:1003D00027970FB6F894DEBF0FBECDBFA89584B7A0
:1003E000877F84BF88E10FB6F894809360001092F5
:1003F00060000FBE89E190E00E949E0180E880933A
:100400006100109261000E947C0318C085E00E9488
:10041000C2018FEF90E7A2E081509040A040E1F749
:1004200000C0000085E00E94D1018FEF90E7A2E0BC
:1004300081509040A040E1F700C000000E94A1035D
:10044000882321F3AFE3BCE91197F1F700C0000066
:1004500085E00E94C20180E00E94BB010E94590118
:10046000082F81E00E94BB010E945901182F82E0F1
:100470000E94BB010E945901F82E83E00E94BB013B
:100480000E945901282F220F9B819170922B9B83F0
:10049000881F8827881F9C819E7F982B9C8384E0DF
:1004A0000E94BB010E945901282F220F9C8191704C
:1004B000922B9C83881F8827881F9D819E7F982B65
:1004C0009D8385E00E94BB010E945901282F220FC5
:1004D0009D819170922B9D83881F8827881F9E8104
:1004E0009E7F982B9E8386E00E94BB010E9459014B
:1004F000282F220F9E819170922B9E83881F882720
:10050000881F9F819E7F982B9F8385E00E94D10149
:10051000902F917029812C7F802F8270292B282B7E
:10052000902F9470237F802F8870292B282B902F59
:1005300090712F7C802F8072292B282B802F807424
:100540002F730078282B202B2983912F91703A81CB
:100550003C7F812F8270392B382B912F9470337F01
:10056000812F8870392B382B912F90713F7C812FF0
:100570008072392B382B812F80743F731078382B81
:10058000312B3A838F2D81704B814E7F482B4B83CB
:100590005C816D817E818F8101E00E94E00385E0B6
:1005A0000E94C20187E00E94BB010E945901082FEE
:1005B00088E00E94BB010E945901182F89E00E9427
:1005C000BB010E945901F82E8AE00E94BB010E94E3
:1005D0005901282F220F9B819170922B9B83881F9A
:1005E0008827881F9C819E7F982B9C838BE00E948C
:1005F000BB010E945901282F220F9C819170922BE0
:100600009C83881F8827881F9D819E7F982B9D83B0
:100610008CE00E94BB010E945901282F220F9D816E
:100620009170922B9D83881F8827881F9E819E7FB3
:10063000982B9E838DE00E94BB010E945901282FB8
:10064000220F9E819170922B9E83881F8827881F7E
:100650009F819E7F982B9F8385E00E94D101902FE0
:10066000917029812C7F802F8270292B282B902F2D
:100670009470237F802F8870292B282B902F9071C6
:100680002F7C802F8072292B282B802F80742F7332
:100690000078282B202B2983912F91703A813C7F61
:1006A000812F8270392B382B912F9470337F812FBB
:1006B0008870392B382B912F90713F7C812F80725D
:1006C000392B382B812F80743F731078382B312BC6
:1006D0003A838F2D81704B814E7F482B4B835C81F9
:1006E0006D817E818F8102E00E94E003ABCE80911C
:1006F000E80080FFFCCF089580EA8093D80086E070
:1007000089BD80E090E00BC0EFE9FFE03197F1F7A1
:1007100000C000000196F3E0883E9F0781F009B415
:1007200000FEF2CF80E88093D8001092E000109293
:1007300002018CE08093E200789480E0089581E0EB
:10074000089580910201089584E091E067ED70E0E2
:1007500044E150E00E94340608958091020188230C
:1007600059F18FB7F89491E09093E9009091E400EB
:100770009E5C21E03091E80035FF03C0E4E0F1E049
:100780000EC08FBF809102018823B1F08091E400F8
:100790008917A1F08FB7F8942093E900EBCF9191DE
:1007A0009093F10091E0E831F907C9F79AE390934B
:1007B000E8008FBF80E008958FEF08958FEF0895D0
:1007C0000F93DF93CF93CDB7DEB727970FB6F8948B
:1007D000DEBF0FBECDBF922F2983232F3A834B83D9
:1007E0005C836D837E838F8300930401492F417066
:1007F000440F440F440F80910501867F392F3695B1
:1008000036953170842B832B492F4695469542703F
:10081000897F392F330F3470842B832B492F4071FC
:100820008F7C392F331F3327331F3295330F307EA0
:10083000842B832B990F90748F73279522272795EC
:10084000892B822B8093050183FF04C09FEF909337
:10085000100102C01092100180FF04C09FEF90931E
:10086000130102C01092130181FF04C09FEF909307
:10087000120102C01092120182FF04C09FEF9093F8
:10088000110102C01092110184FF04C09FEF9093E8
:10089000140102C01092140186FF04C09FEF9093D0
:1008A000160102C01092160185FF04C09FEF9093BD
:1008B000150102C01092150187FF04C08FEF8093CD
:1008C000170102C0109217019A81392F369536957B
:1008D0003170809106018C7F292F269526952270F4
:1008E000832B822B298122952470837F392F330F0C
:1008F000330F3870822B832B292F20718F7E822B10
:100900008093060188E08093070196FF0BC095FF56
:1009100002C087E01DC097FF02C081E019C010929D
:10092000070118C02B81892F807220FF0AC08823FD
:1009300011F085E00DC097FF02C083E009C084E09C
:1009400007C0882311F086E003C097FF03C082E050
:10095000809307019B8196952C81822F879588270C
:100960008795892B8093080126959D81892F8795EE
:1009700088278795822B80930901292F26959E81B0
:10098000892F879588278795822B80930A019695D2
:100990008F81879588278795892B80930B010E94EB
:1009A000AD0327960FB6F894DEBF0FBECDBFCF9133
:1009B000DF910F9108951F920F920FB60F9211249D
:1009C0008F938091E1001092E10083FF0FC010929D
:1009D000E90081E08093EB001092EC0082E38093C9
:1009E000ED0088E08093F000109202018F910F904B
:1009F0000FBE0F901F9018951F920F920FB60F9277
:100A00001124EF92FF922F933F934F935F936F9335
:100A10007F938F939F93AF93BF93CF93DF93EF9386
:100A2000FF931092E9008091E80083FF05C1509187
:100A3000F1004091F1008091F100C82FD0E02091A9
:100A4000F100922F80E0C82BD92B2091F10030E0EB
:100A50006091F100962F80E0282B392BB091F100A6
:100A6000A091F10082EF8093E800463009F059C070
:100A70008FE990E0AC0145505040FC0137976591FB
:100A800074916C177D07F9F4FA01659174916217FE
:100A90007307C9F44E5F5F4FFA01859194914E5FE1
:100AA0005F4FFA0144912B2F30E07A2F60E0262B24
:100AB000372B2F3F310519F010F02FEF30E02417BE
:100AC00050F4422F08C00796495F5F4FF0E0803D29
:100AD0009F0799F6B1C0AEEF2091E80030E0B90170
:100AE0006570707061157105B9F322FDA8C0542FAF
:100AF000413408F050E49C01652F07C0F9012F5FD5
:100B00003F4FE491E093F10061506623B9F7850F00
:100B1000911D451BA093E8004423F1F65034E1F207
:100B20008EC0453051F48EEF8093E8000E94770329
:100B30009E0120682093E30082C0493051F555237F
:100B400009F039C0C09302018EEF8093E80041E0C4
:100B500089EC90E04093E900FC010196E491E09378
:100B6000EB00EE2369F09C012F5F3F4FFC01849165
:100B70008093EC00C9010196F90124912093ED00C6
:100B80004F5F453039F78EE18093EA001092EA001A
:100B900056C0483039F4503871F40E947703809180
:100BA00002012DC0442339F40E9477031092F10012
:100BB0001092F1003DC02115310509F03DC0513AB8
:100BC00009F5413079F40E94770380E090E0FC0160
:100BD000E153FF4FE491E093F100019688309105D5
:100BE000B1F726C0423029F40E94770380910301B7
:100BF00006C0433009F50E9477038091000180937D
:100C0000F10016C05132C1F4493041F48091E8003E
:100C100082FFFCCF8BEF8093E8000AC04A3021F4BA
:100C20007E01F092030104C04B3031F4C093000107
:100C30008EEF8093E80003C081E28093EB00FF9188
:100C4000EF91DF91CF91BF91AF919F918F917F9164
:100C50006F915F914F913F912F91FF90EF900F9087
:100C60000FBE0F901F901895FB01DC0102C005908C
:0E0C70000D9241505040D8F70895F894FFCFF0
:020C7E00010073
:00000001FF
