:100000000C94FF000C941C010C941C010C941C011A
:100010000C941C010C941C010C941C010C941C01EC
:100020000C941C010C941C010C941C010C94E10315
:100030000C9402040C941C010C941C010C941C01E3
:100040000C941C010C941C010C941C010C941C01BC
:100050000C941C010C941C010C941C010C941C01AC
:100060000C941C010C941C010C941C010C941C019C
:100070000C941C010C941C010C941C010C941C018C
:100080000C941C010C941C010C941C010C941C017C
:100090000C941C010C941C0100010000EA001200E9
:1000A000020000FC0022002100000E0109002200D5
:1000B000001E0170000300008E0104010309049278
:1000C000014802030904DC012001C13200000021C3
:1000D00026010700000000000008808080800000EA
:1000E00000000000000000000000120110010000EC
:1000F0000040C410C0820001010200010902220078
:100100000101008032090400000103000000092100
:10011000110100012270000705810340000A05015A
:100120000905A10115002501350045017501950D51
:1001300005091901290D8102950381010501250792
:10014000463B0175049501651409398142650095A6
:1001500001810126FF0046FF0009300931093209FB
:10016000357508950481020600FF0920092109223E
:100170000923092409250926092709280929092A03
:10018000092B950C81020A21269508B102C00403AF
:10019000090448034F00700065006E0043006800CA
:1001A0006F007200640020005800200052004D00D3
:1001B000490054002000450078006500720074007A
:1001C00069006F006E002000470061006D0065004F
:1001D000730020004C006100620000002003550005
:1001E0006E006F004A006F00790020004A006F0027
:1001F000790073007400690063006B000000112433
:100200001FBECFEFD2E0DEBFCDBF11E0A0E0B1E076
:10021000EAE8FAE002C005900D92A230B107D9F7E2
:1002200011E0A2E0B1E001C01D92A731B107E1F7F2
:100230000E9485010C9443050C940000DF93CF933A
:10024000CDB7DEB727970FB6F894DEBF0FBECDBF90
:100250004B8141704B8381E08C838D838E838F81B2
:1002600081608F8329813A8151E061E071E00E94D1
:10027000EA0227960FB6F894DEBF0FBECDBFCF912E
:10028000DF9108959093CD008093CC0088E1809316
:10029000C90086E08093CA00089508C0EFE9FFE036
:1002A0003197F1F700C00000019739F02091C800A4
:1002B00027FFF4CF8091CE00089580E008959091BB
:1002C000C80095FFFCCF8093CE0008959AB121E03D
:1002D00030E002C0220F331F8A95E2F7922B9AB9C1
:1002E0008BB1209528232BB908959AB121E030E0F5
:1002F00002C0220F331F8A95E2F7822F809589234F
:100300008AB98BB1822B8BB90895FF920F931F93FB
:10031000DF93CF93CDB7DEB727970FB6F894DEBF44
:100320000FBECDBFA89584B7877F84BF88E10FB685
:10033000F89480936000109260000FBE89E190E015
:100340000E94420180E880936100109261000E9447
:10035000860218C085E00E9466018FEF90E7A2E058
:1003600081509040A040E1F700C0000085E00E946D
:1003700075018FEF90E7A2E081509040A040E1F737
:1003800000C000000E94AB02882321F3AFE3BCE968
:100390001197F1F700C0000085E00E94660180E03F
:1003A0000E945F0189E190E00E944D01082F81E0E9
:1003B0000E945F0189E190E00E944D01182F82E0C8
:1003C0000E945F0189E190E00E944D01F82E83E0D8
:1003D0000E945F0189E190E00E944D01282F220FC9
:1003E0009B819170922B9B83881F8827881F9C81FB
:1003F0009E7F982B9C8384E00E945F0189E190E0BE
:100400000E944D01282F220F9C819170922B9C837A
:10041000881F8827881F9D819E7F982B9D8385E05C
:100420000E945F0189E190E00E944D01282F220F78
:100430009D819170922B9D83881F8827881F9E81A4
:100440009E7F982B9E8386E00E945F0189E190E069
:100450000E944D01282F220F9E819170922B9E8326
:10046000881F8827881F9F819E7F982B9F8385E008
:100470000E947501902F917029812C7F802F8270AE
:10048000292B282B902F9470237F802F8870292B65
:10049000282B902F90712F7C802F8072292B282B56
:1004A000802F80742F730078282B202B2983912F85
:1004B00091703A813C7F812F8270392B382B912F9C
:1004C0009470337F812F8870392B382B912F907146
:1004D0003F7C812F8072392B382B812F80743F73A2
:1004E0001078382B312B3A838F2D81704B814E7FC2
:1004F000482B4B835C816D817E818F810E94EA0253
:1005000045CF8091E80080FFFCCF089580EA80937A
:10051000D80086E089BD80E090E00BC0EFE9FFE005
:100520003197F1F700C000000196F3E0883E9F0785
:1005300081F009B400FEF2CF80E88093D8001092D9
:10054000E000109202018CE08093E200789480E059
:10055000089581E0089580910201089584E091E07A
:1005600067ED70E043E150E00E943A050895809104
:100570000201882359F18FB7F89491E09093E90034
:100580009091E4009E5C21E03091E80035FF03C0CB
:10059000E4E0F1E00EC08FBF809102018823B1F04A
:1005A0008091E4008917A1F08FB7F8942093E900B7
:1005B000EBCF91919093F10091E0E731F907C9F702
:1005C0009AE39093E8008FBF80E008958FEF08953D
:1005D0008FEF0895DF93CF93CDB7DEB727970FB690
:1005E000F894DEBF0FBECDBF922F2983232F3A830D
:1005F0004B835C836D837E838F83492F4170440FCF
:10060000440F440F80910401867F392F369536952B
:100610003170842B832B492F469546954270897FF4
:10062000392F330F3470842B832B492F40718F7CEB
:10063000392F331F3327331F3295330F307E842BEE
:10064000832B990F90748F73279522272795892BD9
:10065000822B8093040183FF04C09FEF90930F01CE
:1006600002C010920F0180FF04C09FEF909312010F
:1006700002C01092120181FF04C09FEF90931101FC
:1006800002C01092110182FF04C09FEF90931001ED
:1006900002C01092100184FF04C09FEF90931301D9
:1006A00002C01092130186FF04C09FEF90931501C2
:1006B00002C01092150185FF04C09FEF90931401B2
:1006C00002C01092140187FF04C08FEF80931601BF
:1006D00002C0109216019A81392F369536953170E5
:1006E000809105018C7F292F269526952270832BDA
:1006F000822B298122952470837F392F330F330F6A
:100700003870822B832B292F20718F7E822B809330
:10071000050188E08093060196FF0BC095FF02C09B
:1007200087E01DC097FF02C081E019C0109206014A
:1007300018C02B81892F807220FF0AC0882311F0F6
:1007400085E00DC097FF02C083E009C084E007C0C8
:10075000882311F086E003C097FF03C082E08093F6
:1007600006019B8196952C81822F879588278795F6
:10077000892B8093070126959D81892F879588274E
:100780008795822B80930801292F26959E81892F9A
:10079000879588278795822B8093090196958F816D
:1007A000879588278795892B80930A010E94B70235
:1007B00027960FB6F894DEBF0FBECDBFCF91DF9165
:1007C00008951F920F920FB60F9211248F9380916C
:1007D000E1001092E10083FF0FC01092E90081E078
:1007E0008093EB001092EC0082E38093ED0088E0B0
:1007F0008093F000109202018F910F900FBE0F9026
:100800001F9018951F920F920FB60F921124EF921E
:10081000FF922F933F934F935F936F937F938F93A9
:100820009F93AF93BF93CF93DF93EF93FF93109278
:10083000E9008091E80083FF05C15091F1004091EB
:10084000F1008091F100C82FD0E02091F100922FAB
:1008500080E0C82BD92B2091F10030E06091F100AD
:10086000962F80E0282B392BB091F100A091F10058
:1008700082EF8093E800463009F059C08FE990E09C
:10088000AC0145505040FC013797659174916C174D
:100890007D07F9F4FA016591749162177307C9F441
:1008A0004E5F5F4FFA01859194914E5F5F4FFA0161
:1008B00044912B2F30E07A2F60E0262B372B2F3FEF
:1008C000310519F010F02FEF30E0241750F4422FCB
:1008D00008C00796495F5F4FF0E0803D9F0799F69B
:1008E000B1C0AEEF2091E80030E0B90165707070E2
:1008F00061157105B9F322FDA8C0542F413408F0E9
:1009000050E49C01652F07C0F9012F5F3F4FE49130
:10091000E093F10061506623B9F7850F911D451BE7
:10092000A093E8004423F1F65034E1F28EC0453044
:1009300051F48EEF8093E8000E9481029E012068AE
:100940002093E30082C0493051F5552309F039C0A6
:10095000C09302018EEF8093E80041E089EC90E0C3
:100960004093E900FC010196E491E093EB00EE2353
:1009700069F09C012F5F3F4FFC0184918093EC0054
:10098000C9010196F90124912093ED004F5F453094
:1009900039F78EE18093EA001092EA0056C04830A1
:1009A00039F4503871F40E948102809102012DC007
:1009B000442339F40E9481021092F1001092F10058
:1009C0003DC02115310509F03DC0513A09F54130CE
:1009D00079F40E94810280E090E0FC01E153FF4F36
:1009E000E491E093F100019688309105B1F726C0BB
:1009F000423029F40E9481028091030106C04330F5
:100A000009F50E948102809100018093F10016C0D7
:100A10005132C1F4493041F48091E80082FFFCCFAB
:100A20008BEF8093E8000AC04A3021F47E01F092F7
:100A3000030104C04B3031F4C09300018EEF80936A
:100A4000E80003C081E28093EB00FF91EF91DF911A
:100A5000CF91BF91AF919F918F917F916F915F9156
:100A60004F913F912F91FF90EF900F900FBE0F90FD
:100A70001F901895FB01DC0102C005900D924150BA
:0A0A80005040D8F70895F894FFCF16
:020A8A00010069
:00000001FF
